{
  "contractName": "BundleRegistry",
  "abi": [
    {
      "constant": true,
      "inputs": [
        {
          "name": "",
          "type": "address"
        }
      ],
      "name": "vendors",
      "outputs": [
        {
          "name": "whitelisted",
          "type": "bool"
        },
        {
          "name": "url",
          "type": "string"
        }
      ],
      "payable": false,
      "stateMutability": "view",
      "type": "function"
    },
    {
      "constant": true,
      "inputs": [
        {
          "name": "",
          "type": "uint256"
        }
      ],
      "name": "bundleIds",
      "outputs": [
        {
          "name": "",
          "type": "bytes32"
        }
      ],
      "payable": false,
      "stateMutability": "view",
      "type": "function"
    },
    {
      "constant": true,
      "inputs": [],
      "name": "owner",
      "outputs": [
        {
          "name": "",
          "type": "address"
        }
      ],
      "payable": false,
      "stateMutability": "view",
      "type": "function"
    },
    {
      "constant": true,
      "inputs": [
        {
          "name": "",
          "type": "bytes32"
        }
      ],
      "name": "bundles",
      "outputs": [
        {
          "name": "creator",
          "type": "address"
        }
      ],
      "payable": false,
      "stateMutability": "view",
      "type": "function"
    },
    {
      "constant": false,
      "inputs": [
        {
          "name": "newOwner",
          "type": "address"
        }
      ],
      "name": "transferOwnership",
      "outputs": [],
      "payable": false,
      "stateMutability": "nonpayable",
      "type": "function"
    },
    {
      "inputs": [],
      "payable": false,
      "stateMutability": "nonpayable",
      "type": "constructor"
    },
    {
      "anonymous": false,
      "inputs": [
        {
          "indexed": false,
          "name": "bundleId",
          "type": "bytes32"
        }
      ],
      "name": "BundleAdded",
      "type": "event"
    },
    {
      "anonymous": false,
      "inputs": [
        {
          "indexed": true,
          "name": "previousOwner",
          "type": "address"
        },
        {
          "indexed": true,
          "name": "newOwner",
          "type": "address"
        }
      ],
      "name": "OwnershipTransferred",
      "type": "event"
    },
    {
      "constant": false,
      "inputs": [
        {
          "name": "bundleId",
          "type": "bytes32"
        },
        {
          "name": "vendor",
          "type": "address"
        }
      ],
      "name": "addBundle",
      "outputs": [],
      "payable": false,
      "stateMutability": "nonpayable",
      "type": "function"
    },
    {
      "constant": true,
      "inputs": [],
      "name": "getBundleCount",
      "outputs": [
        {
          "name": "",
          "type": "uint256"
        }
      ],
      "payable": false,
      "stateMutability": "view",
      "type": "function"
    },
    {
      "constant": true,
      "inputs": [
        {
          "name": "bundleId",
          "type": "bytes32"
        }
      ],
      "name": "getVendorForBundle",
      "outputs": [
        {
          "name": "",
          "type": "address"
        }
      ],
      "payable": false,
      "stateMutability": "view",
      "type": "function"
    },
    {
      "constant": false,
      "inputs": [
        {
          "name": "vendor",
          "type": "address"
        },
        {
          "name": "url",
          "type": "string"
        }
      ],
      "name": "addToWhitelist",
      "outputs": [],
      "payable": false,
      "stateMutability": "nonpayable",
      "type": "function"
    },
    {
      "constant": false,
      "inputs": [
        {
          "name": "vendor",
          "type": "address"
        }
      ],
      "name": "removeFromWhitelist",
      "outputs": [],
      "payable": false,
      "stateMutability": "nonpayable",
      "type": "function"
    },
    {
      "constant": true,
      "inputs": [
        {
          "name": "vendor",
          "type": "address"
        }
      ],
      "name": "isWhitelisted",
      "outputs": [
        {
          "name": "",
          "type": "bool"
        }
      ],
      "payable": false,
      "stateMutability": "view",
      "type": "function"
    },
    {
      "constant": false,
      "inputs": [
        {
          "name": "vendor",
          "type": "address"
        },
        {
          "name": "url",
          "type": "string"
        }
      ],
      "name": "changeVendorUrl",
      "outputs": [],
      "payable": false,
      "stateMutability": "nonpayable",
      "type": "function"
    },
    {
      "constant": true,
      "inputs": [
        {
          "name": "vendor",
          "type": "address"
        }
      ],
      "name": "getUrlForVendor",
      "outputs": [
        {
          "name": "",
          "type": "string"
        }
      ],
      "payable": false,
      "stateMutability": "view",
      "type": "function"
    }
  ],
  "bytecode": "0x6060604052341561000f57600080fd5b336000806101000a81548173ffffffffffffffffffffffffffffffffffffffff021916908373ffffffffffffffffffffffffffffffffffffffff160217905550610e4d8061005e6000396000f3006060604052600436106100c5576000357c0100000000000000000000000000000000000000000000000000000000900463ffffffff1680631a533daa146100ca5780632143625c1461014657806327e30c361461016f5780633af32abf1461024957806345e1c9061461029a57806360811a741461034c578063665de1a5146103b3578063676ff0d5146103f95780636d71bf09146104755780638ab1d681146104b45780638da5cb5b146104ed57806393862c3b14610542578063f2fde38b146105a9575b600080fd5b34156100d557600080fd5b610144600480803573ffffffffffffffffffffffffffffffffffffffff1690602001909190803590602001908201803590602001908080601f016020809104026020016040519081016040528093929190818152602001838380828437820191505050505050919050506105e2565b005b341561015157600080fd5b6101596106f3565b6040518082815260200191505060405180910390f35b341561017a57600080fd5b6101a6600480803573ffffffffffffffffffffffffffffffffffffffff16906020019091905050610700565b6040518083151515158152602001806020018281038252838181546001816001161561010002031660029004815260200191508054600181600116156101000203166002900480156102395780601f1061020e57610100808354040283529160200191610239565b820191906000526020600020905b81548152906001019060200180831161021c57829003601f168201915b5050935050505060405180910390f35b341561025457600080fd5b610280600480803573ffffffffffffffffffffffffffffffffffffffff16906020019091905050610730565b604051808215151515815260200191505060405180910390f35b34156102a557600080fd5b6102d1600480803573ffffffffffffffffffffffffffffffffffffffff16906020019091905050610789565b6040518080602001828103825283818151815260200191508051906020019080838360005b838110156103115780820151818401526020810190506102f6565b50505050905090810190601f16801561033e5780820380516001836020036101000a031916815260200191505b509250505060405180910390f35b341561035757600080fd5b610371600480803560001916906020019091905050610873565b604051808273ffffffffffffffffffffffffffffffffffffffff1673ffffffffffffffffffffffffffffffffffffffff16815260200191505060405180910390f35b34156103be57600080fd5b6103f760048080356000191690602001909190803573ffffffffffffffffffffffffffffffffffffffff169060200190919050506108bb565b005b341561040457600080fd5b610473600480803573ffffffffffffffffffffffffffffffffffffffff1690602001909190803590602001908201803590602001908080601f016020809104026020016040519081016040528093929190818152602001838380828437820191505050505050919050506109cc565b005b341561048057600080fd5b6104966004808035906020019091905050610a82565b60405180826000191660001916815260200191505060405180910390f35b34156104bf57600080fd5b6104eb600480803573ffffffffffffffffffffffffffffffffffffffff16906020019091905050610aa6565b005b34156104f857600080fd5b610500610b5f565b604051808273ffffffffffffffffffffffffffffffffffffffff1673ffffffffffffffffffffffffffffffffffffffff16815260200191505060405180910390f35b341561054d57600080fd5b610567600480803560001916906020019091905050610b84565b604051808273ffffffffffffffffffffffffffffffffffffffff1673ffffffffffffffffffffffffffffffffffffffff16815260200191505060405180910390f35b34156105b457600080fd5b6105e0600480803573ffffffffffffffffffffffffffffffffffffffff16906020019091905050610bc2565b005b6000809054906101000a900473ffffffffffffffffffffffffffffffffffffffff1673ffffffffffffffffffffffffffffffffffffffff163373ffffffffffffffffffffffffffffffffffffffff1614151561063d57600080fd5b6001600260008473ffffffffffffffffffffffffffffffffffffffff1673ffffffffffffffffffffffffffffffffffffffff16815260200190815260200160002060000160006101000a81548160ff02191690831515021790555080600260008473ffffffffffffffffffffffffffffffffffffffff1673ffffffffffffffffffffffffffffffffffffffff16815260200190815260200160002060010190805190602001906106ee929190610d17565b505050565b6000600380549050905090565b60026020528060005260406000206000915090508060000160009054906101000a900460ff169080600101905082565b6000600260008373ffffffffffffffffffffffffffffffffffffffff1673ffffffffffffffffffffffffffffffffffffffff16815260200190815260200160002060000160009054906101000a900460ff169050919050565b610791610d97565b600260008373ffffffffffffffffffffffffffffffffffffffff1673ffffffffffffffffffffffffffffffffffffffff1681526020019081526020016000206001018054600181600116156101000203166002900480601f0160208091040260200160405190810160405280929190818152602001828054600181600116156101000203166002900480156108675780601f1061083c57610100808354040283529160200191610867565b820191906000526020600020905b81548152906001019060200180831161084a57829003601f168201915b50505050509050919050565b600060016000836000191660001916815260200190815260200160002060000160009054906101000a900473ffffffffffffffffffffffffffffffffffffffff169050919050565b6108c433610730565b15156108cf57600080fd5b600380548060010182816108e39190610dab565b9160005260206000209001600084909190915090600019169055506020604051908101604052808273ffffffffffffffffffffffffffffffffffffffff1681525060016000846000191660001916815260200190815260200160002060008201518160000160006101000a81548173ffffffffffffffffffffffffffffffffffffffff021916908373ffffffffffffffffffffffffffffffffffffffff1602179055509050507fd15f94b0279c21009d7e5db7ed348cb851afeaa2eee802f3603c1ac0fb8fa26e8260405180826000191660001916815260200191505060405180910390a15050565b6000809054906101000a900473ffffffffffffffffffffffffffffffffffffffff1673ffffffffffffffffffffffffffffffffffffffff163373ffffffffffffffffffffffffffffffffffffffff16141515610a2757600080fd5b80600260008473ffffffffffffffffffffffffffffffffffffffff1673ffffffffffffffffffffffffffffffffffffffff1681526020019081526020016000206001019080519060200190610a7d929190610d17565b505050565b600381815481101515610a9157fe5b90600052602060002090016000915090505481565b6000809054906101000a900473ffffffffffffffffffffffffffffffffffffffff1673ffffffffffffffffffffffffffffffffffffffff163373ffffffffffffffffffffffffffffffffffffffff16141515610b0157600080fd5b6000600260008373ffffffffffffffffffffffffffffffffffffffff1673ffffffffffffffffffffffffffffffffffffffff16815260200190815260200160002060000160006101000a81548160ff02191690831515021790555050565b6000809054906101000a900473ffffffffffffffffffffffffffffffffffffffff1681565b60016020528060005260406000206000915090508060000160009054906101000a900473ffffffffffffffffffffffffffffffffffffffff16905081565b6000809054906101000a900473ffffffffffffffffffffffffffffffffffffffff1673ffffffffffffffffffffffffffffffffffffffff163373ffffffffffffffffffffffffffffffffffffffff16141515610c1d57600080fd5b600073ffffffffffffffffffffffffffffffffffffffff168173ffffffffffffffffffffffffffffffffffffffff1614151515610c5957600080fd5b8073ffffffffffffffffffffffffffffffffffffffff166000809054906101000a900473ffffffffffffffffffffffffffffffffffffffff1673ffffffffffffffffffffffffffffffffffffffff167f8be0079c531659141344cd1fd0a4f28419497f9722a3daafe3b4186f6b6457e060405160405180910390a3806000806101000a81548173ffffffffffffffffffffffffffffffffffffffff021916908373ffffffffffffffffffffffffffffffffffffffff16021790555050565b828054600181600116156101000203166002900490600052602060002090601f016020900481019282601f10610d5857805160ff1916838001178555610d86565b82800160010185558215610d86579182015b82811115610d85578251825591602001919060010190610d6a565b5b509050610d939190610dd7565b5090565b602060405190810160405280600081525090565b815481835581811511610dd257818360005260206000209182019101610dd19190610dfc565b5b505050565b610df991905b80821115610df5576000816000905550600101610ddd565b5090565b90565b610e1e91905b80821115610e1a576000816000905550600101610e02565b5090565b905600a165627a7a7230582010e774ad311958f3a1be79da42c0720825331db8688f9251ab600555f53cbf280029",
  "source": "pragma solidity ^0.4.19;\n\nimport 'zeppelin-solidity/contracts/ownership/Ownable.sol';\n\ncontract BundleRegistry is Ownable {\n\n  struct Vendor {\n    bool whitelisted;\n    string url;\n  }\n\n  struct Bundle {\n    address creator;    \n  }\n\n  mapping(bytes32 => Bundle) public bundles;\n  mapping(address => Vendor) public vendors;\n  \n  bytes32[] public bundleIds;\n\n  event BundleAdded(bytes32 bundleId);\n\n  modifier onlyWhitelisted() {\n    require(isWhitelisted(msg.sender));\n    _;\n  }\n\n  function BundleRegistry() public {\n  }\n\n  function addBundle(bytes32 bundleId, address vendor) onlyWhitelisted public {\n    bundleIds.push(bundleId);\n    bundles[bundleId] = Bundle(vendor);    \n    BundleAdded(bundleId);\n  }\n \n  function getBundleCount() public view returns(uint) {\n    return bundleIds.length;\n  }\n\n  function getVendorForBundle(bytes32 bundleId) public view returns (address) {\n    return bundles[bundleId].creator;\n  }\n\n  function addToWhitelist(address vendor, string url) onlyOwner public {\n    vendors[vendor].whitelisted = true;\n    vendors[vendor].url = url;\n  }\n\n  function removeFromWhitelist(address vendor) onlyOwner public {\n    vendors[vendor].whitelisted = false;\n  }\n\n  function isWhitelisted(address vendor) view public returns (bool) {\n    return vendors[vendor].whitelisted;\n  }\n\n  function changeVendorUrl(address vendor, string url) onlyOwner public {\n    vendors[vendor].url = url;\n  }\n\n  function getUrlForVendor(address vendor) public view returns (string) {\n    return vendors[vendor].url;\n  }\n\n}\n",
  "sourcePath": "/Users/ivan/WebstormProjects/ambrosus-node/contracts/BundleRegistry.sol",
  "compiler": {
    "name": "solc",
    "version": "0.4.19+commit.c4cbbb05.Emscripten.clang"
  },
  "schemaVersion": "2.0.0",
  "updatedAt": "2018-03-27T14:34:31.394Z"
}